{
  "_format": "hh-sol-artifact-1",
  "contractName": "GigProof",
  "sourceName": "contracts/GigProof.sol",
  "abi": [
    {
      "inputs": [],
      "name": "AlreadyPaid",
      "type": "error"
    },
    {
      "inputs": [],
      "name": "InsufficientEscrow",
      "type": "error"
    },
    {
      "inputs": [],
      "name": "InvalidReceipt",
      "type": "error"
    },
    {
      "inputs": [],
      "name": "NotEmployer",
      "type": "error"
    },
    {
      "inputs": [],
      "name": "TransferFailed",
      "type": "error"
    },
    {
      "anonymous": false,
      "inputs": [
        {
          "indexed": true,
          "internalType": "uint256",
          "name": "receiptId",
          "type": "uint256"
        },
        {
          "indexed": true,
          "internalType": "address",
          "name": "employer",
          "type": "address"
        },
        {
          "indexed": false,
          "internalType": "uint256",
          "name": "amount",
          "type": "uint256"
        }
      ],
      "name": "EscrowFunded",
      "type": "event"
    },
    {
      "anonymous": false,
      "inputs": [
        {
          "indexed": true,
          "internalType": "uint256",
          "name": "receiptId",
          "type": "uint256"
        },
        {
          "indexed": true,
          "internalType": "address",
          "name": "worker",
          "type": "address"
        },
        {
          "indexed": false,
          "internalType": "uint256",
          "name": "amount",
          "type": "uint256"
        },
        {
          "indexed": false,
          "internalType": "uint256",
          "name": "timestamp",
          "type": "uint256"
        }
      ],
      "name": "PaymentReleased",
      "type": "event"
    },
    {
      "anonymous": false,
      "inputs": [
        {
          "indexed": true,
          "internalType": "address",
          "name": "worker",
          "type": "address"
        },
        {
          "indexed": false,
          "internalType": "uint256",
          "name": "newReputation",
          "type": "uint256"
        },
        {
          "indexed": false,
          "internalType": "uint256",
          "name": "totalJobs",
          "type": "uint256"
        }
      ],
      "name": "ReputationUpdated",
      "type": "event"
    },
    {
      "anonymous": false,
      "inputs": [
        {
          "indexed": true,
          "internalType": "uint256",
          "name": "receiptId",
          "type": "uint256"
        },
        {
          "indexed": true,
          "internalType": "address",
          "name": "worker",
          "type": "address"
        },
        {
          "indexed": true,
          "internalType": "address",
          "name": "employer",
          "type": "address"
        },
        {
          "indexed": false,
          "internalType": "uint256",
          "name": "amount",
          "type": "uint256"
        },
        {
          "indexed": false,
          "internalType": "bytes32",
          "name": "receiptHash",
          "type": "bytes32"
        },
        {
          "indexed": false,
          "internalType": "string",
          "name": "jobDescription",
          "type": "string"
        },
        {
          "indexed": false,
          "internalType": "uint256",
          "name": "timestamp",
          "type": "uint256"
        }
      ],
      "name": "WorkLogged",
      "type": "event"
    },
    {
      "inputs": [
        {
          "internalType": "uint256",
          "name": "receiptId",
          "type": "uint256"
        }
      ],
      "name": "approveAndPay",
      "outputs": [],
      "stateMutability": "nonpayable",
      "type": "function"
    },
    {
      "inputs": [
        {
          "internalType": "address",
          "name": "",
          "type": "address"
        },
        {
          "internalType": "uint256",
          "name": "",
          "type": "uint256"
        }
      ],
      "name": "escrow",
      "outputs": [
        {
          "internalType": "uint256",
          "name": "",
          "type": "uint256"
        }
      ],
      "stateMutability": "view",
      "type": "function"
    },
    {
      "inputs": [
        {
          "internalType": "address",
          "name": "worker",
          "type": "address"
        },
        {
          "internalType": "bytes32",
          "name": "receiptHash",
          "type": "bytes32"
        },
        {
          "internalType": "string",
          "name": "jobDescription",
          "type": "string"
        },
        {
          "internalType": "string",
          "name": "workerName",
          "type": "string"
        },
        {
          "internalType": "string",
          "name": "ipfsUri",
          "type": "string"
        }
      ],
      "name": "fundAndLogWork",
      "outputs": [
        {
          "internalType": "uint256",
          "name": "receiptId",
          "type": "uint256"
        }
      ],
      "stateMutability": "payable",
      "type": "function"
    },
    {
      "inputs": [
        {
          "internalType": "uint256",
          "name": "receiptId",
          "type": "uint256"
        }
      ],
      "name": "getReceipt",
      "outputs": [
        {
          "components": [
            {
              "internalType": "bytes32",
              "name": "receiptHash",
              "type": "bytes32"
            },
            {
              "internalType": "address",
              "name": "worker",
              "type": "address"
            },
            {
              "internalType": "address",
              "name": "employer",
              "type": "address"
            },
            {
              "internalType": "uint256",
              "name": "amount",
              "type": "uint256"
            },
            {
              "internalType": "uint256",
              "name": "timestamp",
              "type": "uint256"
            },
            {
              "internalType": "bool",
              "name": "paid",
              "type": "bool"
            },
            {
              "internalType": "string",
              "name": "ipfsUri",
              "type": "string"
            },
            {
              "internalType": "string",
              "name": "workerName",
              "type": "string"
            },
            {
              "internalType": "string",
              "name": "jobDescription",
              "type": "string"
            }
          ],
          "internalType": "struct GigProof.WorkReceipt",
          "name": "",
          "type": "tuple"
        }
      ],
      "stateMutability": "view",
      "type": "function"
    },
    {
      "inputs": [
        {
          "internalType": "address",
          "name": "worker",
          "type": "address"
        }
      ],
      "name": "getWorkerProfile",
      "outputs": [
        {
          "components": [
            {
              "internalType": "uint256",
              "name": "totalJobs",
              "type": "uint256"
            },
            {
              "internalType": "uint256",
              "name": "totalEarned",
              "type": "uint256"
            },
            {
              "internalType": "uint256",
              "name": "reputation",
              "type": "uint256"
            },
            {
              "internalType": "bool",
              "name": "registered",
              "type": "bool"
            }
          ],
          "internalType": "struct GigProof.WorkerProfile",
          "name": "",
          "type": "tuple"
        }
      ],
      "stateMutability": "view",
      "type": "function"
    },
    {
      "inputs": [
        {
          "internalType": "address",
          "name": "worker",
          "type": "address"
        }
      ],
      "name": "getWorkerReceiptIds",
      "outputs": [
        {
          "internalType": "uint256[]",
          "name": "",
          "type": "uint256[]"
        }
      ],
      "stateMutability": "view",
      "type": "function"
    },
    {
      "inputs": [],
      "name": "receiptCount",
      "outputs": [
        {
          "internalType": "uint256",
          "name": "",
          "type": "uint256"
        }
      ],
      "stateMutability": "view",
      "type": "function"
    },
    {
      "inputs": [
        {
          "internalType": "uint256",
          "name": "",
          "type": "uint256"
        }
      ],
      "name": "receipts",
      "outputs": [
        {
          "internalType": "bytes32",
          "name": "receiptHash",
          "type": "bytes32"
        },
        {
          "internalType": "address",
          "name": "worker",
          "type": "address"
        },
        {
          "internalType": "address",
          "name": "employer",
          "type": "address"
        },
        {
          "internalType": "uint256",
          "name": "amount",
          "type": "uint256"
        },
        {
          "internalType": "uint256",
          "name": "timestamp",
          "type": "uint256"
        },
        {
          "internalType": "bool",
          "name": "paid",
          "type": "bool"
        },
        {
          "internalType": "string",
          "name": "ipfsUri",
          "type": "string"
        },
        {
          "internalType": "string",
          "name": "workerName",
          "type": "string"
        },
        {
          "internalType": "string",
          "name": "jobDescription",
          "type": "string"
        }
      ],
      "stateMutability": "view",
      "type": "function"
    },
    {
      "inputs": [],
      "name": "totalReceipts",
      "outputs": [
        {
          "internalType": "uint256",
          "name": "",
          "type": "uint256"
        }
      ],
      "stateMutability": "view",
      "type": "function"
    },
    {
      "inputs": [
        {
          "internalType": "uint256",
          "name": "receiptId",
          "type": "uint256"
        },
        {
          "internalType": "bytes32",
          "name": "claimedHash",
          "type": "bytes32"
        }
      ],
      "name": "verifyReceipt",
      "outputs": [
        {
          "internalType": "bool",
          "name": "",
          "type": "bool"
        }
      ],
      "stateMutability": "view",
      "type": "function"
    },
    {
      "inputs": [
        {
          "internalType": "address",
          "name": "",
          "type": "address"
        }
      ],
      "name": "workerProfiles",
      "outputs": [
        {
          "internalType": "uint256",
          "name": "totalJobs",
          "type": "uint256"
        },
        {
          "internalType": "uint256",
          "name": "totalEarned",
          "type": "uint256"
        },
        {
          "internalType": "uint256",
          "name": "reputation",
          "type": "uint256"
        },
        {
          "internalType": "bool",
          "name": "registered",
          "type": "bool"
        }
      ],
      "stateMutability": "view",
      "type": "function"
    },
    {
      "inputs": [
        {
          "internalType": "address",
          "name": "",
          "type": "address"
        },
        {
          "internalType": "uint256",
          "name": "",
          "type": "uint256"
        }
      ],
      "name": "workerReceipts",
      "outputs": [
        {
          "internalType": "uint256",
          "name": "",
          "type": "uint256"
        }
      ],
      "stateMutability": "view",
      "type": "function"
    }
  ],
  "bytecode": "0x608060405234801561001057600080fd5b5061227e806100206000396000f3fe6080604052600436106100a75760003560e01c80637f038f3c116100645780637f038f3c14610204578063a23a720f1461022f578063b0a312b41461025a578063b63e6ac314610297578063ce37e7dc146102d4578063d4d0883c14610311576100a7565b806307897007146100ac5780630f7ee1ec146100d55780632b862fa41461011a5780632efd5b061461015a5780632f504d7a146101975780636b0691d2146101d4575b600080fd5b3480156100b857600080fd5b506100d360048036038101906100ce919061155f565b61034e565b005b3480156100e157600080fd5b506100fc60048036038101906100f7919061155f565b6107e4565b604051610111999897969594939291906116a0565b60405180910390f35b34801561012657600080fd5b50610141600480360381019061013c919061176e565b610a17565b604051610151949392919061179b565b60405180910390f35b34801561016657600080fd5b50610181600480360381019061017c91906117e0565b610a54565b60405161018e9190611820565b60405180910390f35b3480156101a357600080fd5b506101be60048036038101906101b99190611867565b610a79565b6040516101cb91906118a7565b60405180910390f35b6101ee60048036038101906101e99190611927565b610a9b565b6040516101fb9190611820565b60405180910390f35b34801561021057600080fd5b50610219611046565b6040516102269190611820565b60405180910390f35b34801561023b57600080fd5b5061024461104c565b6040516102519190611820565b60405180910390f35b34801561026657600080fd5b50610281600480360381019061027c919061176e565b611056565b60405161028e9190611ac1565b60405180910390f35b3480156102a357600080fd5b506102be60048036038101906102b9919061155f565b6110ed565b6040516102cb9190611c2d565b60405180910390f35b3480156102e057600080fd5b506102fb60048036038101906102f6919061176e565b6113b5565b6040516103089190611ca4565b60405180910390f35b34801561031d57600080fd5b50610338600480360381019061033391906117e0565b611447565b6040516103459190611820565b60405180910390f35b600080600083815260200190815260200160002090503373ffffffffffffffffffffffffffffffffffffffff168160020160009054906101000a900473ffffffffffffffffffffffffffffffffffffffff1673ffffffffffffffffffffffffffffffffffffffff16146103ed576040517f05cb04e200000000000000000000000000000000000000000000000000000000815260040160405180910390fd5b8060050160009054906101000a900460ff1615610436576040517fd70a0e3000000000000000000000000000000000000000000000000000000000815260040160405180910390fd5b8060030154600360003373ffffffffffffffffffffffffffffffffffffffff1673ffffffffffffffffffffffffffffffffffffffff16815260200190815260200160002060008481526020019081526020016000205410156104c4576040517f90b8ab8800000000000000000000000000000000000000000000000000000000815260040160405180910390fd5b60018160050160006101000a81548160ff0219169083151502179055506000600360003373ffffffffffffffffffffffffffffffffffffffff1673ffffffffffffffffffffffffffffffffffffffff1681526020019081526020016000206000848152602001908152602001600020819055506000600160008360010160009054906101000a900473ffffffffffffffffffffffffffffffffffffffff1673ffffffffffffffffffffffffffffffffffffffff1673ffffffffffffffffffffffffffffffffffffffff16815260200190815260200160002090508060000160008154809291906105b390611cee565b919050555081600301548160010160008282546105d09190611d36565b9250508190555060648160020154101561061e576064600182600201546105f79190611d36565b11610612576001816002015461060d9190611d36565b610615565b60645b81600201819055505b8160010160009054906101000a900473ffffffffffffffffffffffffffffffffffffffff1673ffffffffffffffffffffffffffffffffffffffff167f5b88a2e3fc1a53234357ab78c104df11c33ccfa79886793654565ad70b8afb6e82600201548360000154604051610692929190611d6a565b60405180910390a260008260010160009054906101000a900473ffffffffffffffffffffffffffffffffffffffff1673ffffffffffffffffffffffffffffffffffffffff1683600301546040516106e890611dc4565b60006040518083038185875af1925050503d8060008114610725576040519150601f19603f3d011682016040523d82523d6000602084013e61072a565b606091505b5050905080610765576040517f90b8ec1800000000000000000000000000000000000000000000000000000000815260040160405180910390fd5b8260010160009054906101000a900473ffffffffffffffffffffffffffffffffffffffff1673ffffffffffffffffffffffffffffffffffffffff16847f8cdc8dc08e54a4e57f52077ecf1b4c508758513439cae2aa325dcc85b922fca88560030154426040516107d6929190611d6a565b60405180910390a350505050565b60006020528060005260406000206000915090508060000154908060010160009054906101000a900473ffffffffffffffffffffffffffffffffffffffff16908060020160009054906101000a900473ffffffffffffffffffffffffffffffffffffffff16908060030154908060040154908060050160009054906101000a900460ff169080600601805461087890611e08565b80601f01602080910402602001604051908101604052809291908181526020018280546108a490611e08565b80156108f15780601f106108c6576101008083540402835291602001916108f1565b820191906000526020600020905b8154815290600101906020018083116108d457829003601f168201915b50505050509080600701805461090690611e08565b80601f016020809104026020016040519081016040528092919081815260200182805461093290611e08565b801561097f5780601f106109545761010080835404028352916020019161097f565b820191906000526020600020905b81548152906001019060200180831161096257829003601f168201915b50505050509080600801805461099490611e08565b80601f01602080910402602001604051908101604052809291908181526020018280546109c090611e08565b8015610a0d5780601f106109e257610100808354040283529160200191610a0d565b820191906000526020600020905b8154815290600101906020018083116109f057829003601f168201915b5050505050905089565b60016020528060005260406000206000915090508060000154908060010154908060020154908060030160009054906101000a900460ff16905084565b6003602052816000526040600020602052806000526040600020600091509150505481565b6000816000808581526020019081526020016000206000015414905092915050565b6000803411610adf576040517f08c379a0000000000000000000000000000000000000000000000000000000008152600401610ad690611e85565b60405180910390fd5b600073ffffffffffffffffffffffffffffffffffffffff168973ffffffffffffffffffffffffffffffffffffffff1603610b4e576040517f08c379a0000000000000000000000000000000000000000000000000000000008152600401610b4590611ef1565b60405180910390fd5b60046000815480929190610b6190611cee565b9190505590506040518061012001604052808981526020018a73ffffffffffffffffffffffffffffffffffffffff1681526020013373ffffffffffffffffffffffffffffffffffffffff16815260200134815260200142815260200160001515815260200184848080601f016020809104026020016040519081016040528093929190818152602001838380828437600081840152601f19601f82011690508083019250505050505050815260200186868080601f016020809104026020016040519081016040528093929190818152602001838380828437600081840152601f19601f82011690508083019250505050505050815260200188888080601f016020809104026020016040519081016040528093929190818152602001838380828437600081840152601f19601f820116905080830192505050505050508152506000808381526020019081526020016000206000820151816000015560208201518160010160006101000a81548173ffffffffffffffffffffffffffffffffffffffff021916908373ffffffffffffffffffffffffffffffffffffffff16021790555060408201518160020160006101000a81548173ffffffffffffffffffffffffffffffffffffffff021916908373ffffffffffffffffffffffffffffffffffffffff160217905550606082015181600301556080820151816004015560a08201518160050160006101000a81548160ff02191690831515021790555060c0820151816006019081610d9591906120ec565b5060e0820151816007019081610dab91906120ec565b50610100820151816008019081610dc291906120ec565b5090505034600360003373ffffffffffffffffffffffffffffffffffffffff1673ffffffffffffffffffffffffffffffffffffffff168152602001908152602001600020600083815260200190815260200160002081905550600160008a73ffffffffffffffffffffffffffffffffffffffff1673ffffffffffffffffffffffffffffffffffffffff16815260200190815260200160002060030160009054906101000a900460ff16610f1757604051806080016040528060008152602001600081526020016000815260200160011515815250600160008b73ffffffffffffffffffffffffffffffffffffffff1673ffffffffffffffffffffffffffffffffffffffff16815260200190815260200160002060008201518160000155602082015181600101556040820151816002015560608201518160030160006101000a81548160ff0219169083151502179055509050505b600260008a73ffffffffffffffffffffffffffffffffffffffff1673ffffffffffffffffffffffffffffffffffffffff1681526020019081526020016000208190806001815401808255809150506001900390600052602060002001600090919091909150553373ffffffffffffffffffffffffffffffffffffffff168973ffffffffffffffffffffffffffffffffffffffff16827f0f898906f662e1c4f0b28509fb286586435a6f91add9936c6356cb40ff577bb9348c8c8c42604051610fe39594939291906121fa565b60405180910390a43373ffffffffffffffffffffffffffffffffffffffff16817f4a2cd88ec7a748d5b20b3512d7249c67745777b219009075c745923684e9653d346040516110329190611820565b60405180910390a398975050505050505050565b60045481565b6000600454905090565b6060600260008373ffffffffffffffffffffffffffffffffffffffff1673ffffffffffffffffffffffffffffffffffffffff1681526020019081526020016000208054806020026020016040519081016040528092919081815260200182805480156110e157602002820191906000526020600020905b8154815260200190600101908083116110cd575b50505050509050919050565b6110f5611478565b60008083815260200190815260200160002060405180610120016040529081600082015481526020016001820160009054906101000a900473ffffffffffffffffffffffffffffffffffffffff1673ffffffffffffffffffffffffffffffffffffffff1673ffffffffffffffffffffffffffffffffffffffff1681526020016002820160009054906101000a900473ffffffffffffffffffffffffffffffffffffffff1673ffffffffffffffffffffffffffffffffffffffff1673ffffffffffffffffffffffffffffffffffffffff16815260200160038201548152602001600482015481526020016005820160009054906101000a900460ff1615151515815260200160068201805461120890611e08565b80601f016020809104026020016040519081016040528092919081815260200182805461123490611e08565b80156112815780601f1061125657610100808354040283529160200191611281565b820191906000526020600020905b81548152906001019060200180831161126457829003601f168201915b5050505050815260200160078201805461129a90611e08565b80601f01602080910402602001604051908101604052809291908181526020018280546112c690611e08565b80156113135780601f106112e857610100808354040283529160200191611313565b820191906000526020600020905b8154815290600101906020018083116112f657829003601f168201915b5050505050815260200160088201805461132c90611e08565b80601f016020809104026020016040519081016040528092919081815260200182805461135890611e08565b80156113a55780601f1061137a576101008083540402835291602001916113a5565b820191906000526020600020905b81548152906001019060200180831161138857829003601f168201915b5050505050815250509050919050565b6113bd6114f5565b600160008373ffffffffffffffffffffffffffffffffffffffff1673ffffffffffffffffffffffffffffffffffffffff1681526020019081526020016000206040518060800160405290816000820154815260200160018201548152602001600282015481526020016003820160009054906101000a900460ff1615151515815250509050919050565b6002602052816000526040600020818154811061146357600080fd5b90600052602060002001600091509150505481565b60405180610120016040528060008019168152602001600073ffffffffffffffffffffffffffffffffffffffff168152602001600073ffffffffffffffffffffffffffffffffffffffff16815260200160008152602001600081526020016000151581526020016060815260200160608152602001606081525090565b60405180608001604052806000815260200160008152602001600081526020016000151581525090565b600080fd5b600080fd5b6000819050919050565b61153c81611529565b811461154757600080fd5b50565b60008135905061155981611533565b92915050565b6000602082840312156115755761157461151f565b5b60006115838482850161154a565b91505092915050565b6000819050919050565b61159f8161158c565b82525050565b600073ffffffffffffffffffffffffffffffffffffffff82169050919050565b60006115d0826115a5565b9050919050565b6115e0816115c5565b82525050565b6115ef81611529565b82525050565b60008115159050919050565b61160a816115f5565b82525050565b600081519050919050565b600082825260208201905092915050565b60005b8381101561164a57808201518184015260208101905061162f565b60008484015250505050565b6000601f19601f8301169050919050565b600061167282611610565b61167c818561161b565b935061168c81856020860161162c565b61169581611656565b840191505092915050565b6000610120820190506116b6600083018c611596565b6116c3602083018b6115d7565b6116d0604083018a6115d7565b6116dd60608301896115e6565b6116ea60808301886115e6565b6116f760a0830187611601565b81810360c08301526117098186611667565b905081810360e083015261171d8185611667565b90508181036101008301526117328184611667565b90509a9950505050505050505050565b61174b816115c5565b811461175657600080fd5b50565b60008135905061176881611742565b92915050565b6000602082840312156117845761178361151f565b5b600061179284828501611759565b91505092915050565b60006080820190506117b060008301876115e6565b6117bd60208301866115e6565b6117ca60408301856115e6565b6117d76060830184611601565b95945050505050565b600080604083850312156117f7576117f661151f565b5b600061180585828601611759565b92505060206118168582860161154a565b9150509250929050565b600060208201905061183560008301846115e6565b92915050565b6118448161158c565b811461184f57600080fd5b50565b6000813590506118618161183b565b92915050565b6000806040838503121561187e5761187d61151f565b5b600061188c8582860161154a565b925050602061189d85828601611852565b9150509250929050565b60006020820190506118bc6000830184611601565b92915050565b600080fd5b600080fd5b600080fd5b60008083601f8401126118e7576118e66118c2565b5b8235905067ffffffffffffffff811115611904576119036118c7565b5b6020830191508360018202830111156119205761191f6118cc565b5b9250929050565b60008060008060008060008060a0898b0312156119475761194661151f565b5b60006119558b828c01611759565b98505060206119668b828c01611852565b975050604089013567ffffffffffffffff81111561198757611986611524565b5b6119938b828c016118d1565b9650965050606089013567ffffffffffffffff8111156119b6576119b5611524565b5b6119c28b828c016118d1565b9450945050608089013567ffffffffffffffff8111156119e5576119e4611524565b5b6119f18b828c016118d1565b92509250509295985092959890939650565b600081519050919050565b600082825260208201905092915050565b6000819050602082019050919050565b611a3881611529565b82525050565b6000611a4a8383611a2f565b60208301905092915050565b6000602082019050919050565b6000611a6e82611a03565b611a788185611a0e565b9350611a8383611a1f565b8060005b83811015611ab4578151611a9b8882611a3e565b9750611aa683611a56565b925050600181019050611a87565b5085935050505092915050565b60006020820190508181036000830152611adb8184611a63565b905092915050565b611aec8161158c565b82525050565b611afb816115c5565b82525050565b611b0a816115f5565b82525050565b600082825260208201905092915050565b6000611b2c82611610565b611b368185611b10565b9350611b4681856020860161162c565b611b4f81611656565b840191505092915050565b600061012083016000830151611b736000860182611ae3565b506020830151611b866020860182611af2565b506040830151611b996040860182611af2565b506060830151611bac6060860182611a2f565b506080830151611bbf6080860182611a2f565b5060a0830151611bd260a0860182611b01565b5060c083015184820360c0860152611bea8282611b21565b91505060e083015184820360e0860152611c048282611b21565b915050610100830151848203610100860152611c208282611b21565b9150508091505092915050565b60006020820190508181036000830152611c478184611b5a565b905092915050565b608082016000820151611c656000850182611a2f565b506020820151611c786020850182611a2f565b506040820151611c8b6040850182611a2f565b506060820151611c9e6060850182611b01565b50505050565b6000608082019050611cb96000830184611c4f565b92915050565b7f4e487b7100000000000000000000000000000000000000000000000000000000600052601160045260246000fd5b6000611cf982611529565b91507fffffffffffffffffffffffffffffffffffffffffffffffffffffffffffffffff8203611d2b57611d2a611cbf565b5b600182019050919050565b6000611d4182611529565b9150611d4c83611529565b9250828201905080821115611d6457611d63611cbf565b5b92915050565b6000604082019050611d7f60008301856115e6565b611d8c60208301846115e6565b9392505050565b600081905092915050565b50565b6000611dae600083611d93565b9150611db982611d9e565b600082019050919050565b6000611dcf82611da1565b9150819050919050565b7f4e487b7100000000000000000000000000000000000000000000000000000000600052602260045260246000fd5b60006002820490506001821680611e2057607f821691505b602082108103611e3357611e32611dd9565b5b50919050565b7f4d7573742066756e6420657363726f7700000000000000000000000000000000600082015250565b6000611e6f60108361161b565b9150611e7a82611e39565b602082019050919050565b60006020820190508181036000830152611e9e81611e62565b9050919050565b7f496e76616c696420776f726b6572206164647265737300000000000000000000600082015250565b6000611edb60168361161b565b9150611ee682611ea5565b602082019050919050565b60006020820190508181036000830152611f0a81611ece565b9050919050565b7f4e487b7100000000000000000000000000000000000000000000000000000000600052604160045260246000fd5b60008190508160005260206000209050919050565b60006020601f8301049050919050565b600082821b905092915050565b600060088302611fa27fffffffffffffffffffffffffffffffffffffffffffffffffffffffffffffffff82611f65565b611fac8683611f65565b95508019841693508086168417925050509392505050565b6000819050919050565b6000611fe9611fe4611fdf84611529565b611fc4565b611529565b9050919050565b6000819050919050565b61200383611fce565b61201761200f82611ff0565b848454611f72565b825550505050565b600090565b61202c61201f565b612037818484611ffa565b505050565b5b8181101561205b57612050600082612024565b60018101905061203d565b5050565b601f8211156120a05761207181611f40565b61207a84611f55565b81016020851015612089578190505b61209d61209585611f55565b83018261203c565b50505b505050565b600082821c905092915050565b60006120c3600019846008026120a5565b1980831691505092915050565b60006120dc83836120b2565b9150826002028217905092915050565b6120f582611610565b67ffffffffffffffff81111561210e5761210d611f11565b5b6121188254611e08565b61212382828561205f565b600060209050601f8311600181146121565760008415612144578287015190505b61214e85826120d0565b8655506121b6565b601f19841661216486611f40565b60005b8281101561218c57848901518255600182019150602085019450602081019050612167565b868310156121a957848901516121a5601f8916826120b2565b8355505b6001600288020188555050505b505050505050565b82818337600083830152505050565b60006121d9838561161b565b93506121e68385846121be565b6121ef83611656565b840190509392505050565b600060808201905061220f60008301886115e6565b61221c6020830187611596565b818103604083015261222f8185876121cd565b905061223e60608301846115e6565b969550505050505056fea26469706673582212209648c37c99d68985a1179036b226c6ca23e0c0465ccda27708b6c106a109c18b64736f6c63430008140033",
  "linkReferences": {},
  "deployedLinkReferences": {}
}